:020000040800F2
:1000000000100020A50200080901000813010008E3
:1000100000000000000000000000000000000000E0
:1000200000000000000000000000000019010008AE
:100030000000000000000000230100082D0100085E
:10004000F5020008F5020008F5020008F5020008B4
:10005000F5020008F5020008F5020008F5020008A4
:1000600000000000F5020008F5020008F502000893
:10007000F5020008F5020008F50200080000000083
:10008000F5020008F502000800000000F502000873
:10009000F5020008F5020008F5020008F502000864
:1000A000F5020008F5020008F5020008F502000854
:1000B000F5020008F502000800000000F502000843
:1000C00010B5064C2378002B07D1054B002B02D02E
:1000D000044800E000BF0123237010BD0000002091
:1000E000000000004C030008044B10B5002B03D0A7
:1000F0000349044800E000BF10BDC04600000000F6
:10010000040000204C03000880B500AFC046BD4687
:1001100080BD80B500AFFEE780B500AFC046BD46EC
:1001200080BD80B500AFC046BD4680BD80B500AF84
:10013000C046BD4680BD000080B500AF1B4B1A68AD
:100140001A4B01210A431A60184B5A68174B184979
:100150000A405A60154B1A68144B16490A401A6037
:10016000124B1A68114B14490A401A600F4B5A6817
:100170000E4B12490A405A600C4BDA6A0B4B0F21A6
:100180008A43DA62094B1A6B084B0D490A401A631D
:10019000064B5A6B054B01218A435A63034B0022DD
:1001A0009A6000F00FF8C046BD4680BD00100240C6
:1001B0000CB8FF08FFFFF6FEFFFFFBFFFFFFC0FFCD
:1001C000ACFEFFFF80B582B000AF00237B60002350
:1001D0003B60314B1A68304B802149020A431A6058
:1001E0002D4B1A6880239B0213403B607B680133D0
:1001F0007B603B68002B04D17A68A023DB019A4224
:10020000EED1254B1A6880239B02134002D00123B4
:100210003B6001E000233B603B68012B38D11F4B62
:1002200011221A601C4A1C4B52685A601A4A1A4B17
:1002300052685A60184B5A68174B19490A405A605D
:10024000154B5A68144B882149030A435A60124BD4
:100250001A68114B802149040A431A60C0460E4BAC
:100260001A6880239B041340F9D00B4B5A680A4B41
:1002700003218A435A60084B5A68074B02210A43FC
:100280005A60C046044B5B680C221340082BF9D11E
:10029000C046BD4602B080BD0010024000200240B2
:1002A000FF7FC0FF0D488546FFF746FF0C480D490C
:1002B0000D4A002302E0D458C4500433C4188C42C1
:1002C000F9D30A4A0A4C002301E013600432A24227
:1002D000FBD300F017F800F00EF8FEE70010002046
:1002E00000000020000000206C0300080000002037
:1002F0001C000020FEE780B500AF00231800BD46BB
:1003000080BD000070B500260C4D0D4C641BA41080
:10031000A64209D1002600F019F80A4D0A4C641BC8
:10032000A410A64205D170BDB300EB589847013622
:10033000EEE7B300EB5898470136F2E76403000894
:10034000640300086403000868030008F8B5C046A9
:10035000F8BC08BC9E467047F8B5C046F8BC08BC5F
:040360009E467047FE
:04036400E9000008A4
:04036800C1000008C8
:04000005080002A548
:00000001FF
