:020000040800F2
:1000000000100020C12D0008252C00082F2C00080E
:1000100000000000000000000000000000000000E0
:10002000000000000000000000000000352C000867
:1000300000000000000000003F2C0008492C0008D0
:10004000112E0008112E0008112E0008112E000894
:10005000112E0008D52B0008112E0008112E0008C3
:1000600000000000112E0008112E0008112E0008BB
:10007000112E0008F52A0008112E000800000000CB
:10008000112E0008112E000800000000112E00089B
:10009000112E0008112E0008112E0008112E000844
:1000A000112E0008112E0008112E0008112E000834
:1000B000112E0008112E000800000000112E00086B
:1000C00010B5064C2378002B07D1054B002B02D02E
:1000D000044800E000BF0123237010BDCC060020BF
:1000E000000000005C2E0008044B10B5002B03D06C
:1000F0000349044800E000BF10BDC04600000000F6
:10010000D00600205C2E000803460B437FD400225B
:1001100043088B4274D303098B425FD3030A8B429B
:1001200044D3030B8B4228D3030C8B420DD3FF2205
:10013000090212BA030C8B4202D31212090265D0D3
:10014000030B8B4219D300E0090AC30B8B4201D386
:10015000CB03C01A5241830B8B4201D38B03C01ACD
:100160005241430B8B4201D34B03C01A5241030B44
:100170008B4201D30B03C01A5241C30A8B4201D3F5
:10018000CB02C01A5241830A8B4201D38B02C01AA0
:100190005241430A8B4201D34B02C01A5241030A17
:1001A0008B4201D30B02C01A5241CDD2C3098B42FC
:1001B00001D3CB01C01A524183098B4201D38B0179
:1001C000C01A524143098B4201D34B01C01A52411C
:1001D00003098B4201D30B01C01A5241C3088B4261
:1001E00001D3CB00C01A524183088B4201D38B004C
:1001F000C01A524143088B4201D34B00C01A5241EE
:10020000411A00D201465241104670475DE0CA0FC4
:1002100000D04942031000D34042534000229C4684
:1002200003098B422DD3030A8B4212D3FC2289018E
:1002300012BA030A8B420CD3890192118B4208D364
:10024000890192118B4204D389013AD0921100E0C6
:100250008909C3098B4201D3CB01C01A52418309DA
:100260008B4201D38B01C01A524143098B4201D307
:100270004B01C01A524103098B4201D30B01C01A32
:100280005241C3088B4201D3CB00C01A52418308AC
:100290008B4201D38B00C01A5241D9D243088B4202
:1002A00001D34B00C01A5241411A00D201466346A5
:1002B00052415B10104601D34042002B00D5494209
:1002C000704763465B1000D3404201B5002000F048
:1002D00005F802BD0029F8D016E770477047C04600
:1002E0008446100062468C461900634600E0C04612
:1002F0001FB500F0EBFE002801D40021C8421FBD4D
:1003000010B500F03BFE4042013010BD10B500F0CA
:10031000DDFE002801DB002010BD012010BDC0461D
:1003200010B500F0D3FE002801DD002010BD012033
:1003300010BDC04610B500F063FE002801DC0020AF
:1003400010BD012010BDC04610B500F059FE0028B8
:1003500001DA002010BD012010BDC0469E2110B55D
:10036000C905041C00F08EFF002803D1201C00F0FA
:1003700097FD10BD9E21201CC90500F0E3FB00F095
:100380008FFD80231B069C466044F2E7F0B5C6460D
:1003900043025B0A4E0245004F00DA00C40F9C4640
:1003A000700A904600B52D0E3F0EC90FB6098C425B
:1003B0004BD0EA1B002A36DD002F61D0FF2D00D183
:1003C000ADE08023DB041E431B2A00DCD3E00120C8
:1003D0004346181A430100D48CE080018709380095
:1003E00000F05AFF05388740854200DCB6E02D1A40
:1003F000B3483840430704D00F230340042B00D0F8
:100400000430430100D478E06A1CFE2D65D08001E1
:10041000430A9C46D2B26346D0051843E407204302
:1004200080BCB846F0BD002A35D07A1B002D00D024
:10043000AFE04346002B00D1A7E0531E012A00D1B4
:100440002FE1FF2A69D01A00AAE0E91B002970DD1C
:10045000002F37D0FF2D62D08023DB041E431B29E1
:1004600000DCB0E001204044430143D50135FF2DBD
:1004700033D00123934A0340400810401843B9E7A2
:10048000002E00D183E0511E012A00D1D8E0FF2ABE
:1004900045D00A0098E7FE276A1C174200D086E084
:1004A000002D00D0B7E04346002B00D1F3E000223E
:1004B000002EB0D0981B430100D4FAE043460C0054
:1004C000F01A97E7002E00D1C8E04A1E012900D19A
:1004D000AEE0FF2923D01100C1E70023FF229C4694
:1004E00099E7FE216A1C114277D0FF2AF5D015004A
:1004F00046447008430700D07EE7C308FF2D0ED0A6
:100500005B025B0A9C46EAB285E7002E07D0802298
:10051000D203134203D0104201D10C000300002B80
:10052000DBD08020C00318434002430A9C46FF22D0
:1005300071E70029D5D07A1B002D60D14346002BEE
:1005400024D0531E012A73D0FF2AE7D01A001B2A99
:1005500000DC85E001203D00801985E720233A007A
:10056000451B38000135EA405D1BA840431E9841F9
:10057000002510433EE7202330009B1A31009840AD
:10058000D140431E9841084322E70C0003001500A8
:10059000B4E7FF2FC1D080234046DB0418438046D8
:1005A0001B2A51DD01200C003D00301A12E74346A2
:1005B0009F1B7B012BD4002F00D010E700230024C9
:1005C00000229C4627E7202332003000CA40591AF7
:1005D0008840431E9841104345E7002D4AD14346C9
:1005E000002B63D00022002E00D114E730004044DD
:1005F000430100D47EE7324B013518407AE7FF2FE4
:100600008CD080234146DB04194388469FE743464C
:100610000C00F71AE3E64246002A00D075E7002EE8
:1006200000D07AE78023DB0300249C46FF22F2E619
:10063000300040440125430100D45BE7022518E760
:1006400043460125981BC5E6202344464046D44036
:100650009A1A9040431E98412043A4E70D004DE7AD
:10066000202341464046D1409A1A9040431E98416B
:10067000084370E74246002A00D14FE7002E00D120
:100680004DE78022D203134200D148E7104200D048
:1006900045E7030043E7002E90D00C00844600227B
:1006A000B9E643460C00F01A013593E68446002271
:1006B000B1E6002800D01DE7002300249C46AAE6EE
:1006C000FFFFFFFBFFFFFF7DF0B54F464646D646D6
:1006D0004502C0B547000C1C6D0A3F0EC60F002F27
:1006E00000D170E0FF2F00D175E0EB008025ED0414
:1006F0001D43002399469A467F3F6002430A98466D
:1007000063001B0EE40F002B4ED0FF2B46D0424659
:10071000D0008022D2040243904600227F3B310069
:10072000FF1A4B466140C9B213430F2B00D9B5E005
:100730006E489B00C3589F460023984626004546B6
:1007400092465346022B00D189E0032B00D19EE054
:10075000012B18D03B007F33002B69DD6A0704D0E2
:100760000F222A40042A00D004352A0103D5604B09
:100770001D403B008033FE2B00DD70E0AD016D0AB3
:10078000D8B202E00E0000200025C0052843F6077D
:100790003043E0BCBA46B146A846F0BD4346002B04
:1007A0003FD10222FF3F03E04346002B2DD101221F
:1007B00031004B466140C9B213430F2B34D84D482A
:1007C0009B00C3589F46002D13D104239946033B39
:1007D00000279A4691E7002D05D108239946063B4C
:1007E000FF279A4689E70C239946093BFF279A463B
:1007F00083E7280000F050FD7627431F9D4000232B
:100800007F4299469A463F1A77E7404600F044FDFA
:100810004246431F9A4076235B4290461B1A0022B1
:100820007DE7FF2303227AE70E00FF200025ACE7D7
:100830000120C01A1B28A6DC9E372A00BD40C240FA
:100840006B1E9D4115436B0704D00F232B40042BD7
:1008500000D004356B0144D50120002595E7FF2029
:10086000002592E780250026FF20ED038DE7002379
:1008700098468020C003054209D04346034206D172
:10088000454605436D022600FF206D0A7DE7802066
:10089000C00305436D02FF206D0A76E742466B01F7
:1008A0005001834219D21B220025013F01261C0062
:1008B0006D005B00002C01DB984201D81B1A354308
:1008C000013A002AF3D15A1E93411D433B007F3366
:1008D0000E00002B00DD41E7AAE71A2201251B1AB2
:1008E000E4E7AD0100206D0A4FE7C046742E000812
:1008F000FFFFFFF7B42E0008F0B54F464646D64638
:1009000044024500C0B5640A0F1C2D0EC60F002D11
:1009100000D18DE0FF2D00D192E000238020994688
:100920009A46E400C00404437F3D7802430A984697
:100930007B001B0EFF0F002B00D170E0FF2B00D1BE
:1009400086E04246D00080227F3BED180023D2048F
:10095000024390469C4631004B467940681C0F2B61
:100960001CD8764A9B00D3589F4639004446E2463D
:100970005346022B0FD0032B00D1D7E0012B37D1E8
:1009800000200024C0052043C9070843E0BCBA4644
:10099000B146A846F0BDFF200024F3E7260C24044E
:1009A000220C44462404240C434627001B0C5743C6
:1009B00074435A435E4312193B0C9B189C4203D963
:1009C00080225202944666443F041A043F0CD21916
:1009D0009401671EBC411B0C920E9B1914439B0192
:1009E0001C431B0100D49BE0012362081C401443FC
:1009F00002007F32002A64DD630704D00F23234006
:100A0000042B00D00434230103D502004C4B803268
:100A10001C40FE2ABFDCA401640AD0B2B2E7434600
:100A2000002B3DD14A4601331A4391469C4692E73A
:100A3000002C29D104239946033B00259A4674E7EC
:100A4000002C1BD108239946063BFF259A466CE7EC
:100A50004346FF35002B0BD102234A461A439146E9
:100A60009C4678E753463100022B00D083E792E79B
:100A700003234A461A4391469C466CE70C23994649
:100A8000093BFF259A4650E7200000F005FC76253B
:100A9000431F9C4000236D4299469A462D1A44E715
:100AA000404600F0F9FB4246431F9A4000232D1AAE
:100AB00090469C46763D4EE780240021FF20E403CB
:100AC00060E701239B1A1B2B00DD59E722009E30B3
:100AD000DA4084401300621E94411C43630704D033
:100AE0000F232340042B00D0043463011AD50120C6
:100AF000002447E78020C003044209D04346034254
:100B000006D14446044364023900FF20640A39E7F1
:100B10008020C003044364023100FF20640A31E7EF
:100B2000280065E7A4010020640A2BE78020C003A9
:100B300004436402FF20640A24E7C046F42E000840
:100B4000FFFFFFF7F8B5CE46474643025B0A4E0269
:100B5000DA009446720A914645004A0080B52D0E8F
:100B60001F00C40F120EC90FB609FF2A5BD0012067
:100B700041408C4239D0A81A00285ADD002A6AD098
:100B8000FF2D00D1D9E08022D20416431B2800DCBF
:100B9000E9E001206346181A430100D4B4E0800163
:100BA0008709380000F078FB05388740854200DC73
:100BB000CCE02D1AB5483840430704D00F2303403A
:100BC000042B00D00430430100D4A0E06A1CFE2DA9
:100BD00000D18DE08001470AD2B2D0053843E40746
:100BE0002043C0BCB946B046F8BDA81A80460028CC
:100BF00045DD002A70D0FF2D00D19EE08023DB046C
:100C00001E4343461B2B00DCD2E00120604443011D
:100C10007AD50135FF2D6BD001239D4A0340400852
:100C200010401843C8E7002E20D08C4223D0280063
:100C3000FF38002839D0571B002D00D09DE06346B7
:100C4000002B00D1DBE07B1E012F00D10DE1FF2F37
:100C500071D01F0098E0002E00D1A7E0421E0128AD
:100C600000D1E6E0FF2868D010008FE70120414066
:100C7000A14200D07FE7FF2040428046A844404682
:100C8000002838D0511B002D00D1AEE0FF2A00D142
:100C9000DFE080236046DB04184384461B2900DC28
:100CA000D9E0012015008019B1E7FE206A1C10422E
:100CB00071D1002D00D0A6E06346002B00D1D9E011
:100CC0000022002E00D188E7981B430100D4E1E008
:100CD00063460C00F01A6FE7002E00D1B7E0020067
:100CE000013A012800D19CE0FF2826D0904688E7F1
:100CF000FF22002771E7FE206A1C104264D0FF2A01
:100D0000F6D0150066447008430700D056E7C308C4
:100D1000FF2D12D05B025F0AEAB25EE76246002A4C
:100D200000D196E0002E08D08022D203134204D0D6
:100D30004846104201D10C004B46002BD8D08027EA
:100D4000FF031F437F02FF227F0A46E720233A006A
:100D5000451B38000135EA405D1BA840431E984101
:100D60000025104328E720231B1A32009E40C24072
:100D70003000431E984110430CE7FF2ADBD080234C
:100D80006046DB04184384461B2F56DD01200C000F
:100D90001500301A00E763469F1B7B013DD4002FEE
:100DA00000D0FEE600240022002716E70500AFE78A
:100DB000320043464146DA4020235B1A9E40300011
:100DC000431E9841104321E7002DA7D16346002B15
:100DD00059D00022002E00D1FFE6300060444301CC
:100DE00092D52A4B013518408EE76346002B47D039
:100DF0004B1E012915D0FF292BD019004EE70C00FE
:100E00004B463D0084E76246002A8BD1002E92D1EA
:100E100080270024FF22FF03DFE663460C00F71A59
:100E2000BFE6300060440125430100D46CE7022591
:100E3000F2E663460125981BAEE620236446604631
:100E4000FC40DF1BB840431E984120439FE705004C
:100E50005EE74B4671E7202365466046CD40591A50
:100E60008840431E984128431CE763460C00012537
:100E7000F01A91E6002E95D00C004F460022ACE609
:100E80004B460D0044E74F460022A6E6FFFFFFFB5E
:100E9000FFFFFF7D002800D036E7002400279CE6F6
:100EA00041024200C30F490A0020120E7E2A03DDD0
:100EB0009D2A02DD094A98187047802000040143EA
:100EC000952A07DC9620821AD1404842002BF3D1A4
:100ED0000800F1E7963A9140F7E7C046FFFFFF7F31
:100EE000F8B5002813D0C317C6185E40C40F3000F1
:100EF00000F0D2F99E2305001B1A962B0FDC082860
:100F000001DD083DAE407602760AD8B202E0002448
:100F100000200026C0053043E4072043F8BD992B8C
:100F20000CDD05223100121AD1400A000100300008
:100F30001B318840411E884102431600052D12DCFA
:100F400031000D4F3940720709D00F20304004287E
:100F500005D004314A0102D59F2339405B1B89012A
:100F60004E0AD8B2D6E76A1F96403100024F394088
:100F70007207F4D0E9E7C046FFFFFFFBF0B54E462D
:100F80004546DE4657469046E0B517001A03120B59
:100F90000500844619480E034C0091465A00DB0FA9
:100FA0009B46360B640DC90F520D844219D0824204
:100FB00010D0012094420ED14E450CD10120C445E1
:100FC00009D1594517D0002C05D130002843431EC4
:100FD000984100E00120F0BCBB46B246A946A046BD
:100FE000F0BD330001202B43F5D1A242F3D14B4693
:100FF0003B43F0D1E2E70020EDE7C046FF070000E9
:10100000F0B54746CE460400180016001B031B0B24
:101010002D4D4A00994680B543000F03A446B046C3
:101020003F0B520DC90F5B0DC00FAA4221D0AB423E
:1010300013D0002A22D13C43002B02D14D462E432F
:1010400022D0002C10D0814222D002200139084049
:101050000138C0BCB946B046F0BD4D462E4329D13B
:10106000002AF0D13C43EED10028F2D101204042C9
:10107000EFE73D0025431DD19342EED0002BE2D196
:101080004C462643DFD1E0E70020002CE1D0DCE72E
:101090009A420ADCE8DB4F45D7D80ED000204F45F6
:1010A000D7D20029E2D00800D3E74342584140009C
:1010B0000138CEE702204042CBE7C445C5D8002026
:1010C000C445C6D2EDE7C046FF070000F0B547466D
:1010D000CE460400180016001B031B0B2C4D4A00C3
:1010E000994680B543000F03A446B0463F0B520D0E
:1010F000C90F5B0DC00FAA420DD0AB4210D0002A21
:1011000027D13C43002B11D14D462E430ED1002058
:10111000002C15D00EE03D00254310D1934218D18C
:101120004D462E430BD1002A02D13C43002C0BD05C
:10113000814214D0022001390840013800E0022029
:10114000C0BCB946B046F0BD0028F9D101204042EC
:10115000F6E7002BECD14C462643E9D1EAE79A4268
:1011600004DD4342584140000138E9E79A42EBDB95
:101170004F45DFD806D000204F45E1D20029E5D009
:101180000800DDE7C445D5D80020C445D8D2F5E72E
:10119000FF07000070B543004602C40FFE201B0E7F
:1011A000591C750A08420CD0E022920094466D0743
:1011B000360B63441B053343E4072343280019001F
:1011C00070BD002B14D1002D1BD0280000F064F856
:1011D0000A281CDC0B232E001B1ADE4003001533EB
:1011E0009D400E4A3603121A5205360B530DE1E7A5
:1011F000002D09D08022360B1203094B6D071643D0
:10120000D8E700230026D5E70026054BD2E70300E8
:101210000B3B9D402E000025E3E7C04689030000FC
:10122000FF070000844608006146FFE71FB500F095
:10123000BDF8002801D40021C8421FBD10B500F040
:1012400049F84042013010BD10B500F0AFF8002859
:1012500001DB002010BD012010BDC04610B500F01C
:10126000A5F8002801DD002010BD012010BDC046FA
:1012700010B500F055F8002801DC002010BD012059
:1012800010BDC04610B500F04BF8002801DA002070
:1012900010BD012010BDC0461C2101231B04984233
:1012A00001D3000C10391B0A984201D3000A0839F7
:1012B0001B09984201D30009043902A2105C4018AE
:1012C0007047C04604030202010101010000000052
:1012D0000000000070B5420045024E024C00C30FF2
:1012E0006D0A0120120E760A240EC90FFF2A06D0BD
:1012F000FF2C03D0A24201D1B54206D070BD002D13
:10130000FCD1FF2CFAD1002EF8D18B4206D001205F
:10131000002AF3D12800431E9841EFE70020EDE7B3
:1013200070B5420045024E024C00C30F6D0A120E0A
:10133000760A240EC80FFF2A1BD0FF2C0ED0002ADD
:101340001BD1002C01D1002E1CD0002D0CD08342CB
:101350001CD00221581E0840013870BD002E22D139
:10136000002AF4D1002DF2D10028F6D1012040420C
:10137000F3E7002D17D1FF2CF0D0002CE7D1002E81
:10138000E5D1E6E70020002DE7D0E2E7A24205DC48
:10139000EADBB54202D8E7D30020DEE743425841FA
:1013A00040000138D9E702204042D6E770B542003C
:1013B00045024E024C00C30F6D0A120E760A240E2F
:1013C000C80FFF2A0BD0FF2C0DD0002A1FD1002CF4
:1013D00016D1002E14D10020002D10D009E0002DD0
:1013E0000CD1FF2C13D1002E08D1002A08D0834243
:1013F00012D00221581E0840013800E0022070BDC2
:10140000002DF4D10028FAD101204042F7E7002C4A
:10141000EDD1002EEBD1ECE7A24205DCF2DBB542C8
:1014200002D8EFD30020EAE7434258414000013898
:10143000E5E7C04680B584B000AFF860B9607A6077
:101440003B603B6800225A603B6800221A603B68A0
:10145000FA689A603B68BA68DA603B687A681A6131
:101460003B689B68190080231802FEF74DFE0300BD
:101470001A003B685A613B68DB680133190080231E
:101480001802FEF741FE03001A003B689A61C0464D
:10149000BD4604B080BD000080B58AB000AFF860E2
:1014A000B9607A60FA68BB68D31AFB617B685B69D4
:1014B000FA699A4203DD80231B027B620DE07B68A0
:1014C0005B695B42FA699A4202DA2D4B7B6204E067
:1014D0007B689A68FB6953437B627B685B68FA6947
:1014E000D318BB617B689B69BA699A4207DD802388
:1014F0001B027B617B689A697B685A6010E07B689D
:101500009B695B42BA699A4207DA1D4B7B617B6833
:101510009B695A427B685A6002E07B68BA695A60EC
:101520007B68DA687B685B6853437B617B681A6918
:101530007B681968BB68CB1A53433B617B68BA6808
:101540001A607A6A7B69D2183B69D318002B00DADB
:101550000F331B113B623A6A80231B029A4203DD60
:1015600080231B023B6205E03B6A054A934201DA95
:10157000034B3B623B6A1800BD460AB080BDC046C3
:101580000080FFFF80B582B000AF78607B68094AB9
:1015900093420BD180239B000121180000F088FCAE
:1015A00080239B000021180000F082FCC046BD464D
:1015B00002B080BD0024014080B584B000AF7860E7
:1015C00039600023FB607B68DB68FB60FB680F4AC7
:1015D0001340FB603B681A683B681B795B031A4346
:1015E0003B689B681A433B68DB681A433B681B698E
:1015F0001A433B685B691343FA681343FB607B68DB
:10160000FA68DA60C046BD4604B080BD03D2FFFF71
:1016100080B582B000AF78607B6800221A607B687A
:1016200000221A717B6800229A607B680022DA60CF
:101630007B6800221A617B6800225A61C046BD4661
:1016400002B080BD80B582B000AF78600A00FB1C9C
:101650001A70FB1C1B78002B06D07B689B6801224C
:101660001A437B689A6005E07B689B6802221A43F4
:101670007B689A60C046BD4602B080BD80B586B02A
:1016800000AFF860B9607A6000237B61FB689A6AFA
:10169000BB681A43FB689A627B69072293437B61AC
:1016A0007A697B6813437B61FB687A695A61C0463B
:1016B000BD4606B080BD80B586B000AF786000231F
:1016C0007B6100233B610023FB607B689B68802279
:1016D00012061A437B689A607B689B68DB0FDB0706
:1016E000FB603B6901333B613A69F0231B029A427C
:1016F00002D0FB68002BEFD17B689B68002B03DBDB
:101700007B681B6C7B6101E000237B617B691800B7
:10171000BD4606B080BD80B582B000AF78607B6802
:101720009B6804221A437B689A60C046BD4602B09B
:1017300080BD80B582B000AF78600A00FB1C1A70D3
:10174000FB1C1B78002B06D07B68DB6801221A4348
:101750007B68DA6006E07B68DB68012293431A004D
:101760007B68DA60C046BD4602B080BD80B582B0FD
:1017700000AF786039607B68DB68022293431A000F
:101780007B68DA607B68DA683B681A437B68DA60FA
:10179000C046BD4602B080BD80B584B000AF786061
:1017A00039600F23FB1800221A700023BB603A68CF
:1017B00080235B04134005D07B689B680D4A13406F
:1017C000BB6002E07B681B68BB60BB683A68134083
:1017D00004D00F23FB1801221A7003E00F23FB181B
:1017E00000221A700F23FB181B781800BD4604B0A6
:1017F00080BDC046FFFFFFFE80B582B000AF7860BD
:101800007B681B684F4A1A407B681A607B6800221D
:101810001A607B6800225A607B6800229A607B68AD
:101820000022DA607B68484A934206D1474B5A68E7
:10183000464B0F210A435A607FE07B68444A93423B
:1018400006D1424B5A68414BF0210A435A6074E07A
:101850007B68404A934207D13C4B5A683B4BF0218E
:1018600009010A435A6068E07B683B4A934207D10A
:10187000364B5A68354BF02109020A435A605CE046
:101880007B68364A934207D1304B5A682F4BF02180
:1018900009030A435A6050E07B68314A934207D1FA
:1018A0002A4B5A68294BF02109040A435A6044E044
:1018B0007B682C4A934207D1244B5A68234BF02172
:1018C00009050A435A6038E07B68274A934206D1EB
:1018D000264B5A68254B0F210A435A602DE07B683E
:1018E000234A934206D1214B5A68204BF0210A43E8
:1018F0005A6022E07B681F4A934207D11B4B5A680B
:101900001A4BF02109010A435A6016E07B681A4A13
:10191000934207D1154B5A68144BF02109020A4330
:101920005A600AE07B68154A934206D10F4B5A6809
:101930000E4BF02109030A435A60C046BD4602B06F
:1019400080BDC046FEFF00000800024000000240CB
:101950001C00024030000240440002405800024097
:101960006C00024080000240080402400004024073
:101970001C04024030040240440402405804024067
:1019800080B584B000AF786039600023FB607B686D
:101990001B68FB60FB68184A1340FB603B689A6851
:1019A0003B681B6A1A433B681B691A433B685B69C7
:1019B0001A433B689B691A433B68DB691A433B68DF
:1019C0005B6A1A433B689B6A1343FA681343FB60E4
:1019D0007B68FA681A603B68DA687B685A603B6823
:1019E0001A687B689A603B685A687B68DA60C04610
:1019F000BD4604B080BDC0460F80FFFF80B582B0F9
:101A000000AF78600A00FB1C1A70FB1C1B78002BCF
:101A100006D07B681B6801221A437B681A6005E0C8
:101A20007B681B68034A1A407B681A60C046BD4643
:101A300002B080BDFEFF000080B584B000AF7860CA
:101A40000023FB60334BFB607B689B79002B4FD0FE
:101A5000304B1A687B681B68D9432E4B0A401A60CA
:101A60002C4B5A687B681B68D9432A4B0A405A6042
:101A70007B681B791A00FB689B18FB60FB68196880
:101A80007B681A68FB680A431A60224B9A687B6875
:101A90001B68D9431F4B0A409A601E4BDA687B686B
:101AA0001B68D9431B4B0A40DA607B685B79102BBB
:101AB0000ED1184B99687B681A68164B0A439A60D6
:101AC000144BD9687B681A68124B0A43DA601DE030
:101AD000104BFB607B685B791A00FB689B18FB600E
:101AE000FB6819687B681A68FB680A431A600DE096
:101AF0007B681B791A00FB689B18FB60FB681A68FF
:101B00007B681B68D943FB680A401A60C046BD4623
:101B100004B080BD0004014080B584B000AF78609F
:101B20000F217B1800221A70094B5B697A681340F9
:101B300003D07B1801221A7003E00F23FB18002248
:101B40001A700F23FB181B781800BD4604B080BD27
:101B50000004014080B582B000AF7860034B7A6822
:101B60005A61C046BD4602B080BDC0460004014077
:101B700080B586B000AF7860396000237B610023B8
:101B80003B610023FB6000237B617CE001227B69D9
:101B90009A4013003B613B681A683B691340FB6045
:101BA000FA683B699A426BD13B681B79012B03D0E1
:101BB0003B681B79022B34D17B689B687A695200A1
:101BC000032191400A00D2431A407B689A607B68E7
:101BD0009A683B685B7919007B695B0099400B0050
:101BE0001A437B689A607B689B889BB27A6992B241
:101BF000110001228A4092B2D24392B213409AB2AB
:101C00007B689A807B689B889AB23B689B791900B5
:101C10007B699BB299400B009BB213439AB27B68DD
:101C20009A807B681B687A695200032191400A0000
:101C3000D2431A407B681A607B681A683B681B793C
:101C400019007B695B0099400B001A437B681A609E
:101C50007B68DB687A6992B25200032191400A00E6
:101C6000D2431A407B68DA607B68DA683B68DB79CC
:101C700019007B695B0099400B001A437B68DA60AE
:101C80007B6901337B617B690F2B00D87EE7C046FF
:101C9000C046BD4606B080BD80B584B000AF786058
:101CA0000A00BB1C1A800F217B1800221A707B6867
:101CB0001B8A9BB2BA1C128813409BB2002B03D024
:101CC0007B1801221A7003E00F23FB1800221A7000
:101CD0000F23FB181B781800BD4604B080BD80B5EB
:101CE00084B000AF786008001100BB1C021C1A8091
:101CF0007B1C0A1C1A700023FB600023BB607B1C4A
:101D00001A78BB1C1B8807210B409B009A401300CC
:101D1000FB60BB1C1B88DB089BB21A007B68083287
:101D20009200D358BA1C128807210A4092000F2152
:101D300091400A00D243B91C0988C90889B2080039
:101D40001A4011007B68020008329200D150BB1C7F
:101D50001B88DB089BB21A007B6808329200D358BC
:101D6000FA681343BB60BB1C1B88DB089BB21A00DC
:101D70007B6808329200B968D150C046BD4604B0B5
:101D800080BD000080B584B000AF78600023FB60A8
:101D90007B689B78002B39D0244A7B681B789B0892
:101DA000DBB2C0339B009B58FB607B681B781A003A
:101DB00003231340DB00FF229A401300DA43FB6841
:101DC0001340FB607B685B789B01FF221A407B68B5
:101DD0001B78190003230B40DB009A401300FA68BC
:101DE0001343FB6011497B681B789B08DBB2C0334F
:101DF0009B00FA685A507B681B781A001F231A4010
:101E00000A4B012191400A001A600AE07B681B78A6
:101E10001A001F231340054901229A401300802213
:101E20008B50C046BD4604B080BDC04600E100E016
:101E300080B582B000AF78600A00FB1C1A70FB1CF2
:101E40001B78002B06D0094B5969084B7A680A4366
:101E50005A6106E0054B5A697B68D943034B0A4037
:101E60005A61C046BD4602B080BDC0460010024067
:101E700080B582B000AF78600A00FB1C1A70FB1CB2
:101E80001B78002B06D0094B9969084B7A680A43E6
:101E90009A6106E0054B9A697B68D943034B0A4077
:101EA0009A61C046BD4602B080BDC04600100240E7
:101EB00080B582B000AF78600A00FB1C1A70FB1C72
:101EC0001B78002B06D0094BD968084B7A680A4367
:101ED000DA6006E0054BDA687B68D943034B0A40B9
:101EE000DA60C046BD4602B080BDC0460010024068
:101EF00080B584B000AF0200FB1D1A70BB1D0A1C28
:101F00001A700023FB60BB1D1B78032213409B004B
:101F10000F229A401300FB60184ABB1D1B789B08D8
:101F2000DBB202339B009B58FA68D2431348B91DB9
:101F300009788908C9B21A408B1C9B001A500F4AB5
:101F4000BB1D1B789B08DBB202339B009A58FB1D1C
:101F50001978BB1D1B78032003409B0099400B00A0
:101F60000648B91D09788908C9B21A438B1C9B0021
:101F70001A50C046BD4604B080BDC04600000140B6
:101F800080B584B000AF786039600E217B180022E4
:101F90001A807B187A6812881A807B682A4A9342D2
:101FA00008D07A688023DB059A4203D07B68274AF1
:101FB00093420DD10E203B183A18128870218A43A3
:101FC0001A803B6859883B183A1812880A431A80CD
:101FD0007B681F4A93420DD00E203B183A18128896
:101FE0001C490A401A803B6819893B183A18128824
:101FF0000A431A807B680E22BA1812881A803B683E
:102000005A687B68DA623B681A887B681A857B6845
:102010000D4A93420BD07B680F4A934207D07B68EE
:102020000E4A934203D07B680D4A934204D13B6829
:102030009B7A9AB27B681A867B6801229A82C04694
:10204000BD4604B080BDC046002C014000040040E5
:1020500000100040FFFCFFFF004001400044014031
:102060000048014080B582B000AF78600A00FB1CD8
:102070001A70FB1C1B78002B08D07B681B889BB256
:10208000012213439AB27B681A8007E07B681B88A1
:102090009BB2012293439AB27B681A80C046BD4628
:1020A00002B080BD80B582B000AF786039603B6817
:1020B0001A883B685B8813439AB23B689B8813433A
:1020C0009AB23B68DB8813439AB23B681B8913437F
:1020D0009AB23B685B8913439AB23B689B8913436E
:1020E00099B27B6844229952C046BD4602B080BD79
:1020F00080B582B000AF78600A00FB1C1A70FB1C30
:102100001B78002B0AD07B6844229B5A9BB20A4A58
:10211000134399B27B684422995209E07B684422B8
:102120009B5A9BB25B045B0C99B27B684422995228
:10213000C046BD4602B080BD0080FFFF90B585B0AF
:1021400000AF786039600A217B1800221A800E24C3
:102150003B1900221A800C203B1800221A807B6851
:102160001B8C9BB2012293439AB27B681A843B1961
:102170007A68128C1A803B187A6892881A807B18C9
:102180007A68128B1A807B1808007A1812887021DE
:102190008A431A803B183A18128803218A431A800E
:1021A0003B6819883B183A1812880A431A802000A5
:1021B0003B183A18128802218A431A803B68998991
:1021C0003B183A1812880A431A803B6859883B1812
:1021D0003A1812880A431A807B682E4A93420BD021
:1021E0007B682D4A934207D07B682C4A934203D0E8
:1021F0007B682B4A934235D10E203B183A1812883F
:1022000008218A431A803B68D9893B183A181288FA
:102210000A431A803B183A18128804218A431A800C
:102220003B6899883B183A1812880A431A800C2098
:102230003B183A1812881B490A401A803B183A1872
:10224000128819490A401A803B68198A3B183A18C3
:1022500012880A431A803B68598A3B183A18128838
:102260000A431A807B680C22BA1812889A807B680D
:102270000A22BA1812881A833B689A687B685A63E4
:102280007B680E22BA1812881A84C046BD4605B073
:1022900090BDC046002C0140004001400044014078
:1022A00000480140FFFEFFFFFFFDFFFF90B585B036
:1022B00000AF786039600A217B1800221A800E2452
:1022C0003B1900221A800C203B1800221A807B68E0
:1022D0001B8C9BB2102293439AB27B681A843B19E1
:1022E0007A68128C1A803B187A6892881A807B1858
:1022F0007A68128B1A807B1808007A18128846496F
:102300000A401A803B183A18128844490A401A8039
:102310003B681B881B0299B23B183A1812880A4383
:102320001A8020003B183A18128820218A431A800C
:102330003B689B891B0199B23B183A1812880A43E3
:102340001A803B685B881B0199B23B183A181288C7
:102350000A431A807B68324A934203D07B68314A31
:10236000934241D10C203B183A1812882E490A405A
:102370001A803B681B8A9B0099B23B183A18128856
:102380000A431A807B68264A93422DD10E243B19BA
:102390003A19128880218A431A803B68DB891B0125
:1023A00099B23B193A1912880A431A803B193A1913
:1023B000128840218A431A803B689B881B0199B28E
:1023C0003B193A1912880A431A803B183A181288A6
:1023D00016490A401A803B685B8A9B0099B23B18F9
:1023E0003A1812880A431A807B680C22BA1812889D
:1023F0009A807B680A22BA1812881A833B689A6806
:102400007B689A637B680E22BA1812881A84C046C9
:10241000BD4605B090BDC046FF8FFFFFFFFCFFFF2C
:10242000002C014000400140FFFBFFFFFFF7FFFFD2
:1024300080B582B000AF786039607B683A685A63D3
:10244000C046BD4602B080BD80B582B000AF7860A6
:1024500039607B683A689A63C046BD4602B080BD69
:1024600080B582B000AF786008001100BB1C021C70
:102470001A807B1C0A1C1A707B1C1B78002B09D04D
:102480007B689B899AB2BB1C1B8813439AB27B68FA
:102490009A810AE07B689B899BB2BA1C1288D2435E
:1024A00092B213409AB27B689A81C046BD4602B090
:1024B00080BD80B582B000AF78600A00BB1C1A8076
:1024C000BB1C1B88DB439AB27B681A82C046BD46A0
:1024D00002B080BDB0B584B000AF78600A00BB1C0C
:1024E0001A800F257B1900221A700C203B1800223D
:1024F0001A800A243B1900221A807B681B8A9AB230
:102500003B18B91C09880A401A807B689B899AB2DB
:102510003B19B91C09880A401A803B181B88002BFC
:1025200007D03B191B88002B03D07B1901221A709E
:1025300003E00F23FB1800221A700F23FB181B78EF
:102540001800BD4604B0B0BD80B582B000AF020037
:10255000FB1D1A70FB1D1B781A001F23134001225C
:102560009A401300034A19008023D150C046BD464B
:1025700002B080BD00E100E080B500AF4A4B002210
:1025800000211020FEF756FF00F0B2F800F096F997
:1025900000F00EFA00F052FA444B1B881AB2962350
:1025A000DB009A4210DB9023DB059A699023DB0560
:1025B000802109020A439A610D20FFF7C5FF3C4BB9
:1025C00000211800FFF794FD3A4B00229A5EFA238F
:1025D000DB009A420ADD374B00229B5E364A93426B
:1025E00004DC364B1A68354B1A6032E0C046344B77
:1025F0001B88002BFBD1314B1A68324B1B68191C0E
:10260000101CFDF7C3FE031C1A1C2C4B1A602B4B2D
:102610001B68181CFEF7BEFD2B4A2C4BFDF794FEE1
:10262000031E03D0254B2A4A1A6012E0234B1B6875
:10263000181CFEF7AFFD274A274BFDF771FE031E5E
:1026400003D01E4B254A1A6003E01C4B1A68244B2A
:102650001A60184B00229B5E1900134A80231B014D
:102660001800FEF719FF03001AB21E4B1A801D4B0B
:1026700000229B5E1C4A93428EDB1A4B00229A5E1C
:1026800080231B019A4287DA164B00229B5E1800BA
:10269000FEF726FC031C1549181CFEF715F8031C51
:1026A0001A1C084B1A6077E7E80600208C07002008
:1026B000002C01409A070020330800000000002091
:1026C0009807002094070020666666666666EE3FFF
:1026D0003333733F333333333333D33F9A99993E94
:1026E0009C0700209007002001F8FFFF0000C84869
:1026F00080B500AFC023DB0201211800FFF798FB73
:10270000664B802212021A60644B01221A71634BDD
:1027100003225A71614B00229A71604A9023DB05B3
:1027200011001800FFF724FA5C4BE02292001A60B7
:102730005A4B02221A71594B03225A71574B0022ED
:102740009A71564A9023DB0511001800FFF710FA22
:102750009023DB05022209211800FFF7C0FA90231D
:10276000DB05022208211800FFF7B9FA9023DB05E8
:10277000022207211800FFF7B2FA484B01221A6023
:10278000464B474A19001000FFF7F2F9444B02226A
:1027900000211800FFF7A3FA80231B010121180074
:1027A000FFF766FB3F4B01221A803E4B00225A8006
:1027B0003C4B3D4A5A603B4B00221A81394B002268
:1027C0009A72384B394A19001000FFF7D9FB384B81
:1027D00060221A80364B01225A80354B04229A809F
:1027E000334B00229A60324B02229A81304B0822EE
:1027F000DA812F4B00221A822D4B802252005A82FE
:102800002B4B2A4A19001000FFF798FC284B274A47
:1028100019001000FFF74AFD264B802212011A8092
:10282000244B8022D2005A80224B00229A80214BD6
:102830000A22DA801F4B00221A811E4B00225A8185
:102840001C4B00229A811B4B184A19001000FFF7FD
:1028500029FC164B01211800FFF704FC134B012142
:102860001800FFF745FC114B01211800FFF721FE6E
:102870000E4B012201211800FFF7F2FD0E4B0D2235
:102880001A700D4B01225A700B4B01229A700A4BA1
:102890001800FFF777FAC046BD4680BD84070020C8
:1028A00000040048040700204D040000002C0140F3
:1028B00010070020240700203407002080B500AF57
:1028C00080239B0001211800FFF7D2FA354B10221C
:1028D0001A60344B03221A71324B0022DA71314AEA
:1028E0009023DB0511001800FFF742F92D4B04225D
:1028F0001A602C4B03221A712A4B0022DA71294AE2
:102900009023DB0511001800FFF732F9264B180061
:10291000FEF738FE254B1800FEF77AFE234B002207
:102920001A60224B01221A71204B00229A601F4B21
:1029300000221A611D4B00225A611C4B1A4A1900D1
:102940001000FEF739FE184B052204211800FEF78F
:1029500095FE154B052210211800FEF78FFE124B35
:102960001800FEF7A8FE104B02211800FEF7FEFE2D
:102970000D4B01211800FEF7DCFE0B4B0121180066
:10298000FEF760FEC046084B01211800FEF704FF69
:10299000031EF8D0044B1800FEF7BDFEC046BD462E
:1029A00080BDC0468407002000240140400700206D
:1029B00080B500AF1E4B01221A601D4B03225A71D5
:1029C0001B4B00221A711A4B0222DA71184A90230B
:1029D000DB0511001800FFF7CBF801210120FFF7FC
:1029E00047FA00210020FFF783FA0120FFF7B2F831
:1029F000104B01221A600F4B00221A710D4B082256
:102A00005A710C4B01229A710A4B1800FFF714F807
:102A1000094B05221A70084B00225A70064B0122FE
:102A20009A70054B1800FFF7ADF9C046BD4680BD52
:102A300084070020380700203407002080B500AF4D
:102A400001210120FFF7F4F91A4B1800FEF7D4FE1C
:102A5000194B1A4A1A601A4A174B5A60164B002231
:102A60009A60154B0222DA60134B00221A61124B56
:102A700080225A61104B802252009A610E4B8022B4
:102A8000D200DA610C4B20221A620B4B8022920199
:102A90005A62094B00229A62074B064A190010003D
:102AA000FEF76EFF034B01211800FEF7A7FFC0469B
:102AB000BD4680BD08000240580700204024014068
:102AC0008C07002080B582B000AF0200FB1D1A7099
:102AD000FB1D1B781A001F23134001229A4013008C
:102AE000034A19008023D150C046BD4602B080BDC4
:102AF00000E100E080B500AF2F4B01211800FFF787
:102B0000E9FC031E55D02D4B1B889BB201339AB2B2
:102B10002A4B1A80294B1B889BB26E2B04D1284B61
:102B20005B881AB2274B1A80244B1B889AB2D92390
:102B30005B009A4202D3214B00221A801F4B1B8854
:102B40009BB21A00204B5200D35A1800FEF7C8F966
:102B5000021C1E4B1B68191C101CFDF7CDFE031C2C
:102B6000181CFDF7FBFB0300134A19001000FFF7C8
:102B70006BFC124B1B889BB21A00154B5200D35AA8
:102B80001800FEF7ADF9021C104B1B68191C101C35
:102B9000FDF7B2FE031C181CFDF7E0FB0300064A1C
:102BA00019001000FFF744FC034B01211800FFF748
:102BB00080FCC046BD4680BD002C01409807002027
:102BC0008C0700209A070020040000209C070020AA
:102BD0006803002080B500AF0120FEF79DFF031EB3
:102BE0001BD00120FEF7B6FF9023DB050121180062
:102BF000FFF752F8031E10D19023DB059A6990234A
:102C0000DB05802109020A439A610D20FFF75AFF74
:102C1000034B00211800FFF76BFAC046BD4680BD8C
:102C2000002C014080B500AFC046BD4680BD80B5D8
:102C300000AFFEE780B500AFC046BD4680BD80B5A1
:102C400000AFC046BD4680BD80B500AFC046BD46A2
:102C500080BD000080B500AF1B4B1A681A4B0121E4
:102C60000A431A60184B5A68174B18490A405A60B1
:102C7000154B1A68144B16490A401A60124B1A6811
:102C8000114B14490A401A600F4B5A680E4B1249F7
:102C90000A405A600C4BDA6A0B4B0F218A43DA6206
:102CA000094B1A6B084B0D490A401A63064B5A6BC5
:102CB000054B01218A435A63034B00229A6000F0BE
:102CC0000FF8C046BD4680BD001002400CB8FF089A
:102CD000FFFFF6FEFFFFFBFFFFFFC0FFACFEFFFFA5
:102CE00080B582B000AF00237B6000233B60314B96
:102CF0001A68304B802149020A431A602D4B1A682A
:102D000080239B0213403B607B6801337B603B6800
:102D1000002B04D17A68A023DB019A42EED1254B27
:102D20001A6880239B02134002D001233B6001E01C
:102D300000233B603B68012B38D11F4B11221A60E6
:102D40001C4A1C4B52685A601A4A1A4B52685A6005
:102D5000184B5A68174B19490A405A60154B5A6864
:102D6000144B882149030A435A60124B1A68114BCD
:102D7000802149040A431A60C0460E4B1A6880231A
:102D80009B041340F9D00B4B5A680A4B03218A432A
:102D90005A60084B5A68074B02210A435A60C046E2
:102DA000044B5B680C221340082BF9D1C046BD468A
:102DB00002B080BD0010024000200240FF7FC0FF33
:102DC0000D488546FFF746FF0C480D490D4A002384
:102DD00002E0D458C4500433C4188C42F9D30A4AD0
:102DE0000A4C002301E013600432A242FBD300F03E
:102DF00011F8FFF7C1FBFEE70010002000000020E3
:102E0000CC0600203C2F0008CC060020A0070020A4
:102E1000FEE7000070B500260C4D0D4C641BA4109D
:102E2000A64209D1002600F019F80A4D0A4C641B8D
:102E3000A410A64205D170BDB300EB5898470136E7
:102E4000EEE7B300EB5898470136F2E7342F00085D
:102E5000342F0008342F0008382F0008F8B5C0467A
:102E6000F8BC08BC9E467047F8B5C046F8BC08BC24
:042E70009E467047C3
:102E74009C08000828080008840700083C0700088C
:102E84008407000864080008840700083C07000859
:102E94002808000828080008640800083C070008FF
:102EA40042070008420700084207000872080008A9
:102EB40028080008280800088407000838070008C4
:102EC400840700086408000884070008380700081D
:102ED40028080008280800086408000838070008C3
:102EE4004207000842070008420700086E0800086D
:102EF4009C0900086C0900086C0900086A090008AC
:102F04007009000870090008B80A00086A09000876
:102F140070090008B80A0008700900086A09000866
:102F2400640A0008640A0008640A0008F40A000835
:042F3400E9000008A8
:042F3800C1000008CC
:102F3C009A99993E0000100020003000400050008B
:102F4C0060006F007F008F009F00AF00BE00CE00BE
:102F5C00DE00ED00FD000C011C012B013A014A01C1
:102F6C0059016801770186019501A301B201C101E4
:102F7C00CF01DE01EC01FA01080216022402320232
:102F8C0040024D025B026802750282028F029C02B3
:102F9C00A802B502C102CD02D902E502F102FC027F
:102FAC00080313031E03290334033E03490353038D
:102FBC005D03670370037A0383038C0395039E03FD
:102FCC00A603AF03B703BF03C603CE03D503DC03CD
:102FDC00E303EA03F103F703FD03030408040E04FF
:102FEC00130418041D04210426042A042E0431049D
:102FFC00350438043B043E044004430445044704B0
:10300C0048044A044B044C044C044D044D044D0438
:10301C004D044C044C044B044A0448044704450436
:10302C00430440043E043B043804350431042E04AC
:10303C002A04260421041D04180413040E04080495
:10304C000304FD03F703F103EA03E303DC03D503F5
:10305C00CE03C603BF03B703AF03A6039E039503BA
:10306C008C0383037A03700367035D0353034903E3
:10307C003E03340329031E0313030803FC02F1026D
:10308C00E502D902CD02C102B502A8029C028F0250
:10309C008202750268025B024D0240023202240277
:1030AC0016020802FA01EC01DE01CF01C101B201E6
:1030BC00A301950186017701680159014A013A0182
:1030CC002B011C010C01FD00ED00DE00CE00BE004A
:1030DC00AF009F008F007F006F0060005000400029
:1030EC003000200010000000000000000000000074
:1030FC0000000000000000000000000000000000C4
:10310C0000000000000000000000000000000000B3
:10311C0000000000000000000000000000000000A3
:10312C000000000000000000000000000000000093
:10344C000000000000000000000000001000200040
:10345C0030004000500060006F007F008F009F0024
:10346C00AF00BE00CE00DE00ED00FD000C011C0123
:10347C002B013A014A015901680177018601950136
:10348C00A301B201C101CF01DE01EC01FA01080276
:10349C0016022402320240024D025B0268027502DF
:1034AC0082028F029C02A802B502C102CD02D9028F
:1034BC00E502F102FC02080313031E032903340383
:1034CC003E03490353035D03670370037A038303CD
:1034DC008C0395039E03A603AF03B703BF03C60378
:1034EC00CE03D503DC03E303EA03F103F703FD0387
:1034FC00030408040E04130418041D0421042604F8
:10350C002A042E043104350438043B043E044004E0
:10351C0043044504470448044A044B044C044C043B
:10352C004D044D044D044D044C044C044B044A040E
:10353C00480447044504430440043E043B04380457
:10354C00350431042E042A04260421041D04180415
:10355C0013040E0408040304FD03F703F103EA0348
:10356C00E303DC03D503CE03C603BF03B703AF03EA
:10357C00A6039E0395038C0383037A0370036703EE
:10358C005D03530349033E03340329031E03130352
:10359C000803FC02F102E502D902CD02C102B50218
:1035AC00A8029C028F028202750268025B024D0225
:1035BC0040023202240216020802FA01EC01DE017A
:1035CC00CF01C101B201A301950186017701680108
:1035DC0059014A013A012B011C010C01FD00ED00BF
:1035EC00DE00CE00BE00AF009F008F007F006F009A
:0C35FC0060005000400030002000100073
:0400000508002DC101
:00000001FF
